:1000000020230020912000008D2000008D20000082
:1000100000000000000000000000000000000000E0
:100020000000000000000000000000008D20000023
:1000300000000000000000008D2000008D20000066
:100040008D2000008D2000008D2000008D200000FC
:100050008D2000008D2000008D2000008D200000EC
:100060000D1000001D1000002D1000003D100000BC
:100070004D1000005D1000007D1C00008D1C000074
:100080009D1C0000111D0000211D0000311D0000FD
:10009000411D0000511D0000450500008D2000009D
:1000A000BD0700008D2000008D2000008D20000085
:1000B0000000000010B5064C2378002B07D1054B3B
:1000C000002B02D0044800E000BF0123237010BDC4
:1000D0001C0000200000000050590000084B10B523
:1000E000002B03D00749084800E000BF0748036819
:1000F000002B00D110BD064B002BFBD09847F9E731
:10010000000000002000002050590000505900005D
:10011000000000000020704710B50023002203708B
:1001200043708370C370002103830362C3610124A1
:100130000471C0246401C480017242728272C2726E
:1001400002732A24025542738273C27303610275DB
:10015000063C0255C3840385417510BDF0B5CE46FB
:1001600000B59AB005000C0016000800B24B984785
:100170002C60B24A136A08210B43136222780523CC
:10018000D20704D518001AB004BC9146F0BD2A6805
:10019000138C9BB2002BFBD122781C339207F1D435
:1001A00073782B71002B04D1A54AD36904210B432A
:1001B000D3610023AB60EB602B61AB76EB762B83D6
:1001C0002B7780009F4BC5502A23F35C002B05D171
:1001D000337B002B02D101336B7701E000236B7777
:1001E0002F6833786A46137069461E20964B9847ED
:1001F0001E20964B984734796022954902A8954B6A
:100200009847132C0BD9F4886022914902A8914B8E
:100210009847132C11D900248E4B99461EE0A40058
:1002200002ABE05801A900234B70CB708B700133F7
:100230000B70C0B2884B9847E5E7A40002ABE058CA
:1002400001A900234B70CB708B7001330B70C0B2CF
:10025000814B9847DFE70134142C18D00123A340C9
:1002600032691A42F7D06022794902A8C847132C94
:10027000F1D8A30002AA985801A900234B70CB70B3
:100280008B7001330B70C0B2734B9847E3E7737BFD
:100290009B01B27BD2011343DBB23B70337DDB01A8
:1002A00072781343DBB2BB70F378342B00D940E192
:1002B0009B006A4AD3589F460422102002211AE06C
:1002C000717A327A102016E006221020012112E005
:1002D0000822102000210EE00022302000210AE038
:1002E00000222020002106E000220020002102E060
:1002F000022210200121090170230B4013433B739C
:100300002A68138C9BB2002BFBD1727D17333F2AD6
:1003100000D937E7F37BDB011A43D2B27A732A683C
:10032000138C9BB2002BFBD1B3787B702423F35C3E
:10033000DB00327B92001A43F37A1343B27A520005
:10034000134303437B812A68138C9BB2002BFBD1A0
:10035000328B002A20D0102800D1C9E000D883E0D9
:10036000202800D1A3E0302816D1F37A002B0AD040
:10037000F16980311723FF2900D903E7316A803101
:10038000FF2900D9FEE61723F169FF2900DDF9E610
:10039000316AFF2900DDF5E67B891A437A812A68F4
:1003A000138C9BB2002BFBD1B38BFB812A68138C7F
:1003B0009BB2002BFBD1338C3B822A68138C9BB2FF
:1003C000002BFBD13379F28813433B812A68138CCD
:1003D0009BB2002BFBD12A33F35CFB7007233B71EC
:1003E0001D33F35C002B1BD0F28C1D4917238A426E
:1003F00000D9C7E67A822A68138C9BB2002BFBD106
:10040000318D80231B01CA18154892B217238242EE
:1004100000D9B7E6B9822A68138C9BB2002BFBD1B6
:10042000104B1B681A02E021C9000A409B065B0FB3
:100430001343BB850023A5E615010000000400401E
:1004400000140040C8000020E514000075140000EE
:100450006056000079550000E11500008C55000041
:10046000FF0F000020608000002895D1F37A002B58
:1004700012D0F369802000018446634419002E489D
:100480001723814200D97DE6336A634419002A4864
:100490001723814200D975E627491723F06988425E
:1004A00000DD6FE6306A884200DD6BE674E7F37AC0
:1004B000002B12D0F3698020800084466344190029
:1004C0001E481723814200D95CE6336A6344190051
:1004D0001A481723814200D954E618491723F069B6
:1004E000884200DD4EE6306A884200DD4AE653E786
:1004F000F37A002B12D0F369802000028446634413
:1005000019000F481723814200D93BE6336A634440
:1005100019000B481723814200D933E608491723F5
:10052000F069884200DD2DE6306A884200DD29E668
:1005300032E7172326E6C046FF0F0000FF03000046
:10054000FFFF000070B52E4B1C6823689D79EDB24B
:10055000EA072DD5E27ED2072AD5A27ED20727D57B
:1005600001229A716269931C636123689B8C9BB220
:100570001380238B013B9BB22383002B15D0637F19
:10058000002B15D02268D3795BB2002B10DB138CC3
:100590009BB2002BFBD1137E02210B431376226802
:1005A000138C9BB2002BFBD102E0237F052B16D0CE
:1005B0006B0708D5042322689371E37E9B0702D55D
:1005C000A37E9B0714D4AB0708D50223226893713E
:1005D000E37E5B0702D5A37E5B070DD470BD0023CD
:1005E00023770133226813712000A3689847DFE75F
:1005F0002000E3689847E6E7236920009847EDE785
:10060000C800002003689868431E9841C0B2704734
:1006100000230370062242708370704730B583B0A8
:10062000050014000160164AD06980235B01034372
:10063000D3610B781C209B0701D503B030BD0B782C
:100640001738DB07F9D401A9A3780B701B300D4BC9
:10065000984720200C4B984700236B71AB71227890
:1006600061780A4329684A7062782A712B626B624A
:10067000AB62EB622B636B63044B1D600020DCE715
:1006800000040040E514000075140000CC000020B8
:1006900070B504000568114E2000B0470028FBD15A
:1006A0002B78022213432B702379062B07D0AB89BA
:1006B0009B070AD50122EB791342FCD070BD084A92
:1006C000D36904210B43D361F1E7EB899B07F5D58F
:1006D0000222EB791342FCD0F0E7C0460506000089
:1006E0000014004000230370082242708370C3701E
:1006F000023303717047000070B582B006000C0031
:10070000150001AB00225A70DA709A7000291CD0D3
:10071000012921D031686B782A781A43AB78002BF5
:1007200001D040231A43EB78002B01D080231A43D9
:100730002B791B02F0200001034013439BB20434C9
:1007400064000C19A38002B070BD190001230B7066
:100750000220054B9847DDE701A901230B70052016
:10076000014B9847D6E7C046E11500004B000168F1
:10077000C9188B89022213438B817047F0B5C64696
:1007800000B504000E00904607680B4D2000A847F6
:100790000028FBD1A4196379002B07D10836760015
:1007A0004346F353002004BC9046F0BD0836760063
:1007B000BF194346BB80F5E70506000070B5594BED
:1007C0001C682568AB79DB074BD50123AB7123008F
:1007D000203346D0637E002B3FD1AB799B0700D4FA
:1007E00099E00223AB71237F002B4BD1AB795B07E0
:1007F00004D50423AB71237E002B47D1238A9BB2FF
:10080000002B4BD0A38A9BB25A1C92B2A2825B00EF
:10081000A268944663441B889BB2AB82238A013B47
:100820009BB22382238A9BB2002B37D1002238331C
:10083000E254343B2B71AB71802149047C333A4A3A
:10084000D1502300203329D0A37E002B22D1AB79B5
:100850001B072ED50823AB7128E00020636A984758
:10086000BBE7AB799B0704D50223AB712300203390
:10087000B9D1AB795B07C1D50423AB712300203319
:10088000B9D1BBE70020236B9847AFE70020236A6C
:100890009847B3E70020A36A9847D8E7AB791B07CE
:1008A00007D50823AB712300203302D0E37E002B51
:1008B00029D1638A9BB2002B24D0E38A9BB25A1CB5
:1008C00092B2E2825B00E268944663441B889BB26A
:1008D000EB82638A013B9BB26382638A9BB2002BEB
:1008E00010D100223933E254313B2B71AB7180219E
:1008F000490478330C4AD1502300203302D0637F5F
:10090000002B04D170BD0020E36A9847D1E7636BE8
:1009100000209847F6E7AB795B0700D46EE7042325
:10092000AB7168E7CC00002000E100E0F0B583B0D7
:1009300005000C00160029600B681C209B0701D5E0
:1009400003B0F0BD0B681738DB07F9D408004F4B34
:100950009847052800D192E0070012374C4AD16928
:10096000012383400B43D36101A9737E0B70FFB257
:100970003800484B98473800474B9847707E002115
:10098000464B98472868414B984707004449454BD8
:100990009847BF00444BFD5000232422AB54013242
:1009A000AB54EB84337E6B72102323602C68338945
:1009B000EB80337C2B7280236A46137000235370C4
:1009C000012393700023D370F069356A00284BD05F
:1009D0006B46187002236A465370000CC0B2694619
:1009E000324B9847002D44D06B461D7002236A4657
:1009F00053702D0CE8B269462C4B9847B37E802289
:100A0000002B04D12A4B9B789B07DB0FDA012523AF
:100A1000F35C002B04D180239B047169994202D1BD
:100A200080231B051A432068736871690B432421D6
:100A3000715C89070B432621715CC9050B43034395
:100A400013432360728980235B0013436360B3897F
:100A50005B00F28952041343727C1343327CD2034D
:100A60001343636200206BE700212000114B98477D
:100A7000AEE7012120000F4B98470500B4E7044A78
:100A8000136A02210B43136218276DE7650F0000FC
:100A900000040040E514000075140000A50D0000DE
:100AA000250B0000A10F0000D0000020E115000080
:100AB00000200041F10D000010B5931C9B00C318ED
:100AC00059602424035D012191400B43DBB203559F
:100AD00010BD028D0523002A01D0180070474B6815
:100AE000C3620B8803850B88C38405323123C2544B
:100AF000036802329A750023EFE7028D0523002A6E
:100B000001D0180070474B68C3620B8803850B88BF
:100B1000C38405323123C254036802329A7500231C
:100B2000EFE7000070B580009B4BC4582568252373
:100B3000E35C2422A65C1E402B7E9B0700D495E03C
:100B4000E38C9BB2228D93420DD03023E35C002BCB
:100B500009D13122A354E3842385B3070BD523693C
:100B60002000984707E0E38C9BB29A4203D03023E1
:100B7000E35C012B22D06A8B43231A4204D010225B
:100B8000123BE254B30624D4637A002B25D16B8B3D
:100B90001B074AD501223023E254730738D4E38C73
:100BA0009BB2002B38D125687C4B984700236B8380
:100BB0008023DB026B607A4B984718E000233122D8
:100BC000A354E3842385F307D5D5E3682000984731
:100BD000D1E7236A20009847D6E725686F4B9847EE
:100BE00000236B838023DB026B606D4B9847236887
:100BF0001A7ED20701D501221A7602221A762468BB
:100C0000664B9847002363836360654B984770BDCC
:100C1000636920009847C2E72568604B9847002326
:100C20006B836B605E4B9847E1E700223023E25410
:100C300033070ED4E38C9BB2002B0ED12568574BA3
:100C4000984700236B838023DB026B60544B9847EB
:100C5000CDE7A36920009847ECE725684F4B9847FC
:100C600000236B836B604E4B9847C0E72B7EDB07FE
:100C70002ED501232B7604332B752033E35C5B07E1
:100C800005D42523E35C082B01D002232B753123E7
:100C9000E35C1E2BBBD03123E35C102BB7D00023C9
:100CA0003122A354E3842385B30703D53023E35CC7
:100CB000002B09D0F307AAD53023E35C012BA6D182
:100CC000E36820009847A2E72369200098479EE741
:100CD0002B7E5B079BD5238D002B1ED03022A25C80
:100CE000012A13D0E38C9BB2002B00D18FE7302375
:100CF000E35C002B44D0E36A5A1CE2621B78DBB24F
:100D00002822AB54238D013B238580E7E28C92B2ED
:100D10009342E7D26B8B5B07E4D500232385E38402
:100D20003033E35C002B17D11C4B984700236B83B7
:100D30008023DB026B601A4B98476A6880239B0212
:100D400013436B601E223123E254F30600D45EE7A6
:100D5000E369200098475AE7104B984700236B83BC
:100D60008023DB026B600E4B98476A6880239B02EE
:100D700013436B6031230022E2542D3B2B7546E771
:100D8000E26A531CE3622823EB5CDBB21370238D11
:100D9000013B23853BE7C046D00000206D100000DA
:100DA000AD10000010B582B004000E4B1B78002B74
:100DB00007D0002905D10B4B5B78834210D01D2052
:100DC0000CE001A90C701120074B98471120074B2C
:100DD0009847044B5C7001221A70002002B010BDCD
:100DE0000020FBE738000020E51400007514000027
:100DF000404B984232D00AD93F4B98424ED03F4B9D
:100E000098425BD03E4B984238D0002070478423F4
:100E1000DB0598420CD03B4B9842F6D1012917D004
:100E200000295DD0022915D0032915D00020EDE757
:100E3000012907D0002951D0022905D0032905D066
:100E40000020E3E73048E1E73048DFE73048DDE7FE
:100E50003048DBE73048D9E73048D7E7012907D0E9
:100E600000293FD0022905D0032905D00020CDE775
:100E70002B48CBE72B48C9E72B48C7E7012907D008
:100E8000002931D0022905D0032905D00020BDE773
:100E90002648BBE72648B9E72648B7E7012907D027
:100EA000002923D0022905D0032905D00020ADE771
:100EB0002148ABE72148A9E72148A7E7012907D046
:100EC000002915D0022905D0032905D000209DE76F
:100ED0001C489BE71C4899E71C4897E71C4895E786
:100EE000032093E71B4891E71B488FE71B488DE7DA
:100EF0001B488BE70008004200100042000400433A
:100F0000000C00420004004203000500030006003C
:100F1000030007000300010003001E0003001F0080
:100F20000300090003000A0003000B000300110086
:100F3000030012000300130003000D0003000E0065
:100F400003000F000300170003001800030019003E
:100F500003000400030008000300100003000C005D
:100F60000300160030B587B00B4B6A4632CB32C255
:100F700032CB32C2009B83420BD001239A006946D8
:100F80005258824206D00133062BF7D1002007B019
:100F900030BD0023D8B2FAE7C05600007047000009
:100FA000F0B50A4B1B78002B0CD1094F094E0A4DA6
:100FB0000024DE515A1914600433182BF9D1012290
:100FC000024B1A708000024BC150F0BD3A00002065
:100FD0003C0000209D0F0000D000002000B583B031
:100FE00008236A4613700133537001339370013341
:100FF000D3700133137101335371034B98476B4620
:10100000185603B000BDC046650F000010B5024B76
:101010001B680020984710BD3C00002010B5024B13
:101020005B680120984710BD3C00002010B5024BC2
:101030009B680220984710BD3C00002010B5024B71
:10104000DB680320984710BD3C00002010B5024B20
:101050001B690420984710BD3C00002010B5024BCE
:101060005B690520984710BD3C0000200C4B1B68B5
:10107000002B06D1EFF31083002B07D00022094B81
:101080001A70074A136801331360704772B6BFF3D2
:101090005F8F0022044B1A700132024B1A70F0E786
:1010A000540000205800002000000020084B1A685F
:1010B000013A1A601B68002B09D1064B1B78002BE4
:1010C00005D00122044B1A70BFF35F8F62B67047E0
:1010D000540000205800002000000020F0B583B02C
:1010E00001AC012565700027A770257021002A201A
:1010F000064EB0478022D200054B9A61277065707A
:1011000021000220B04703B0F0BDC0461511000019
:101110008028004000B583B001AB80221A700A78A5
:101120005A704A789A708A78DA701900014B984799
:1011300003B000BDE115000010B5082803D88000F9
:101140001C4B1B589F46002032E01B4B18692FE0B8
:101150001A4B187D0007800F431C1948584327E09D
:10116000154B586924E0144B1B6800209B071FD5C2
:10117000124980225200CB681342FCD00E4B1B68F0
:101180005B0701D40F4813E000200F4B98470A4B30
:101190009B681B041B0C58430AE02823074AD35CB6
:1011A00000209B0704D5044BD86801E08020000292
:1011B00010BDC046D85600005C000020000C004066
:1011C00000093D00006CDC020915000010B584B078
:1011D000802252002B4B9A60FD3A2B4B9A602B4A8F
:1011E00053681E218B4353608023DB059B78022BC1
:1011F00009D08023DB0501229A7101329A701A000E
:101200009379002BFCD01F4B197D802252420A4358
:101210001A751A7D40218A431A751D4B98471D4C3B
:101220000123A37163712371227804218A43227000
:1012300001A94B6000234B7006220A700B724B729F
:101240000020154B98470020144B98470020144B62
:1012500098472179C9B2134B9847134B98420ED83F
:101260008023DB059B78002B09D08023DB0501223E
:101270009A7100229A701A009379002BFCD004B066
:1012800010BDC046000C004000140040004000416A
:10129000AD12000000040040D11200007D130000D8
:1012A00009140000C92F0000001BB700064A53694B
:1012B00040210B4353610122044B1A7019000B7833
:1012C0001342FCD17047C0460004004000180040A3
:1012D00070B504000D784B78002B02D08023DB0022
:1012E0001D434B7A002B02D080231B011D4348680D
:1012F00001280FD9431E184231D102282DD90223CB
:10130000002201325B009842FBD880235B011D4321
:10131000120415430B7A002B02D080239B011D433E
:101320000426A6401149124A4B6813401E42FBD1C5
:10133000104B9847A4000D4B9C466444226A8023BE
:101340005B001A402A4322626146094A4B681340F7
:101350001E42FBD1084B984770BD0022D5E7000420
:1013600080239B0018430543D4E7C0460018004083
:10137000FC0700006D100000AD10000010B5040067
:101380000422824009480A4943680B401A42FBD1B3
:10139000084B9847A400054B9C466444226A80236E
:1013A0005B0013432362044B984710BD00180040B4
:1013B000FC0700006D100000AD10000010B5040027
:1013C000042282400B480C4943680B401A42FBD16F
:1013D0000A4B9847A000074B9C466044036A084AA2
:1013E0001340036280225200036A1342FCD1054B72
:1013F000984710BD00180040FC0700006D10000069
:10140000FFFEFFFFAD100000F8B50400042282408B
:101410001248134943680B401A42FBD1114B9847BD
:101420000E4F0834A400E059C006C00E0E4B98477A
:101430000600E559ED04ED0FE459240C0B4B9847D9
:10144000002D07D1012C07D921003000084B984707
:10145000060001E00134E6403000F8BD001800400D
:10146000FC0700006D10000039110000AD100000F5
:10147000C92F000010B50400094B9847A000094B84
:101480009C4660448022835840210B438350403166
:10149000403A43581A42FCD0034B984710BDC0460F
:1014A0006D10000000180040AD10000010B50400E1
:1014B000094B9847A000094B9C4660448022835802
:1014C00040218B4383504031403A43581A42FCD16B
:1014D000034B984710BDC0466D1000000018004037
:1014E000AD10000070B504000D00054B98472A7838
:1014F0000F2313402034A400024AA35070BDC046FD
:10150000AD1400000018004010B50400064B9847C9
:101510002034A400054BE4582407240F044B9847BB
:101520002000044B984710BD6D10000000180040CB
:10153000AD1000000914000030B5D378002B35D170
:101540001378802B29D01B0680246402234354780F
:101550000225AC4306D19478002C20D18024A4022B
:10156000234341605478013C012C1CD90D042D0CFF
:10157000A024E4052C431C4384620D0CD0242406D3
:101580002C431C438462D478002C22D15B031CD5ED
:101590009378012B1ED0416117E00023D7E7C024C8
:1015A000E4022343DDE70D4C2340DFE741600C04F8
:1015B000240CA023DB05234383620C0CD0231B06E1
:1015C00023438362D378002B03D15378013B012B53
:1015D00002D930BD8161F8E78160FAE7FFFFFBFFC8
:1015E00010B50A00C1090023002904D14309DB0119
:1015F00005498C4663441F24204001218140180086
:10160000024B984710BDC046002800403915000025
:101610007047000010B5054B9847054B9847054BA0
:101620009847054B9847054B984710BDCD110000D2
:10163000DD10000011160000111600001116000048
:10164000094B98420CD0094B984207D0084A002316
:10165000904201D018007047023302E0012300E0FD
:101660000023DBB2F6E7C046001400420018004237
:10167000001C004210B504000800504B984700239E
:10168000236080004E4A82586260E3722373637362
:10169000A37223726372E36123626362A3622375A0
:1016A0006375A375E3752376637623746374A374FB
:1016B000E3742C22A3540132A3540132A354013207
:1016C000A3540132A3540132A3540132A354013272
:1016D000A3540132A3540132A3540132A354013262
:1016E000A3540132A3540132A3540132A354013252
:1016F000A3540132A3540132A3540132A354013242
:10170000A3540132A3540132A3540132A354013231
:10171000A3540132A3540132A3540132A354013221
:10172000A3540132A3540132A3540132A354013211
:10173000A3540132A3540132A3540132A354013201
:10174000A3540132A3540132A3540132A3540132F1
:10175000A3540132A3540132A3540132A3540132E1
:10176000A3544132A354A365A3670132A354E36594
:10177000E3670132A35423661A3AA3501B32A354E1
:101780006366173AA3501832A354A366143AA350C1
:101790001532A354E366113AA3501232A3542367BF
:1017A0000E3AA3500F32A35463670B3AA3500121A2
:1017B0000C32A1540132A35410BDC04641160000A2
:1017C00010570000F0B5DE4657464E464546E0B598
:1017D00091B001900C0015000800C34B984703001E
:1017E0000100C248C2699E00C14FF7593A43C26125
:1017F00022681C20920706D511B03CBC9046994641
:10180000A246AB46F0BD226801271740F4D1B94883
:10181000325817202E68B242EED36E68B242EBD334
:10182000E869824200D2ABE1286A824200D2A9E193
:10183000686A824200D2A7E1A86A824200D2A5E18A
:1018400098229446AC4462460892002003E001309E
:101850000132082808D01678002EF8D0A64E765C03
:101860008642F4DC1720C7E7002202928020400461
:10187000844602E00132042A0ED0A818007C012818
:10188000F8D19E48405C904200DA81E16046904089
:10189000029E06430296EDE79D32AA5C002A04D020
:1018A000802212010299114302912A7A511E8A4123
:1018B00092000692AA7A012A22D0904AD25C1100A4
:1018C00005923522AA5C8A4200D36BE12C21695C27
:1018D0000F2900D966E1687B0A90287B0B902D20A8
:1018E0008246AA44002004970EAE0796C026360111
:1018F000B1468446A046280055460993824635E005
:10190000069911430691D8E792024F463A400A439E
:1019100019798B4603215F4639400A4316435A79A9
:10192000520160210A40324399790902C026B6006B
:101930000E401643DA791203E021C9010A4016432A
:101940003443039A14432043624607995050042AB3
:101950002AD09A7C0599914200D823E1597A0A3518
:1019600004239B46DC440F2900D91BE10906F02320
:101970001B0519402B002E783604FF20000406407A
:1019800068788024002800D1049C98780827039761
:10199000002801D104980390D878834610205F4630
:1019A000002FB1D10498AFE744465546099B524AEF
:1019B000D25C9146514650315046413000270022BA
:1019C0000126B2460226FF36B34680267602B0468E
:1019D000A4461C004B460FE00678002E07D0934229
:1019E00000D8D9E0022E14D0564696403743013233
:1019F00001310230082A10D00E78002EECD093422C
:101A000000D8C7E04646964037430678002EE9D115
:101A1000EDE75E4696403743E9E799462300644682
:101A20006A7E120130211140287E072202401143B4
:101A30000022802040020E0002E00132042A0BD076
:101A4000A918097D0029F8D00599914200DCA5E08C
:101A5000010091400E43F0E7B246019802000432C3
:101A60003430002102C28242FCD10022019842633C
:101A700082639900224A88500460A022A95C643ADB
:101A800081540DA9EA7A0A701E4AD65C30001E4BBA
:101A9000984730001D4B98474B46002B3CDD2E00ED
:101AA000583698339846A84401239946AB46454694
:101AB000A046089C03E001340436AC422AD02378C7
:101AC000002BF8D00CAB4A469A7000230CAAD370B6
:101AD00013002022B21812781A704A465A703078D1
:101AE00019000B4B9847E6E7411600000004004040
:101AF000FC560000105700001C570000085700005B
:101B0000E80000200C570000E514000075140000E8
:101B1000E115000044465D460A9B1B030B9A120226
:101B20001343029A134323600422A3681A42FCD190
:101B3000FF2323710422A3681A42FCD16B461B7E4B
:101B400063710E9BE3600F9B2361A7615346E363C0
:101B50001022A3681A42FCD12B6863636B6823646C
:101B6000059800281CDD1C35002202CD130010331F
:101B70009B00E318596001329042F6DC00203BE6FE
:101B8000172039E6172037E6172035E6172033E609
:101B9000172031E617202FE617202DE617202BE619
:101BA000002029E6172027E670B50D000468200004
:101BB000074B98478000074BC3581720AB4200D211
:101BC00070BD1022A3681A42FCD165630020F7E7BC
:101BD0004116000010570000920083185960034B13
:101BE000D358426B134343630020704720570000D3
:101BF00070B504000D000068094B9847094B1B5C49
:101C00001F221A4001239340074A1360AD00074B7F
:101C1000EA58A36B1343A36323689A6270BDC0465E
:101C2000411600005057000000E100E0205700007E
:101C3000F0B5C64600B580000E4BC7583B68DE6A5B
:101C4000BB6B7A6B13401E4000240B4B984602E09E
:101C50000434302C0AD04346E5583542F8D03B19BD
:101C60005B68380098473B68DD62F1E704BC90464A
:101C7000F0BDC046E80000202057000010B500204D
:101C8000014B984710BDC046311C000010B5012023
:101C9000014B984710BDC046311C000010B5022012
:101CA000014B984710BDC046311C000070B5800044
:101CB000164BC45823689D7A227E637E13401D40D4
:101CC000EB0706D4AB070BD4EB0610D4AB0615D448
:101CD00070BD2000A3689847012322689372F1E742
:101CE0002000E3689847022322689372ECE7200003
:101CF00023699847102322689372E7E720006369FD
:101D00009847236820229A72E2E7C046F400002038
:101D100010B50020014B984710BDC046AD1C000017
:101D200010B50120014B984710BDC046AD1C000006
:101D300010B50220014B984710BDC046AD1C0000F5
:101D400010B50320014B984710BDC046AD1C0000E4
:101D500010B50420014B984710BDC046AD1C0000D3
:101D600030B587B001A90C4B0A0032CB32C212CB7E
:101D700012C2019B98420BD0012301A99A0052582C
:101D8000824206D00133052BF8D1002007B030BDC8
:101D90000023D8B2FAE7C0467C570000F0B5C6462B
:101DA00000B58EB004000D0016000800AE4B984739
:101DB00080460CAB1B221A705A7001329A70DA708E
:101DC00001321A7102A9A94B14330A0083CB83C2D2
:101DD00083CB83C283CB83C21B6813600023A360C1
:101DE000E360236163612376637643469A00A04BE8
:101DF000D45025603423F35CA376F378082B08D005
:101E000023712B680520DB0708D50EB004BC904673
:101E1000F0BD17204246D207F7D4F1E7EB7A17302E
:101E20009B07F2D42B689B07EFD4337C002B12D195
:101E3000337F002B1BD143465A0002A9531C9B0041
:101E400058584346DB005B58D9B2042923D88B008D
:101E50008849CB589F4601A901238B700022CA7084
:101E6000327E0A704B70307D834B9847E0E701A9C2
:101E700001238B700022CA702432B21812780A70C3
:101E80004B701F33F31818787B4B9847D3E77B4987
:101E90004B6918434861F378082B00D186E033780A
:101EA0006A4613700CAB42469F5C69463800744B1F
:101EB00098473800734B9847F378F2791343B28808
:101EC0001343727A002A02D0802252021343B27A5C
:101ED000002A02D0802292021343F27A002A02D012
:101EE000802252031343327B002A02D080229203C5
:101EF000134371788901B278D201114319432268E2
:101F00001369002BFCD1296022681369002BFCD1D6
:101F1000B3792B73717B4B1E99418900B37B002BE6
:101F200001D00123194322681369002BFCD1FF3330
:101F30002B71002904D022681369002BFCD1697130
:101F4000337A6B7322681369002BFCD12379042B3D
:101F500059D0082B74D01720002B00D055E71369F7
:101F6000002BFCD1338DAB8222681369002BFCD18E
:101F7000738DAB8322681369002BFCD1B38DEB8387
:101F8000002042E73D498B691843886183E73B495C
:101F9000CB691843C8617EE738490B6A1843086269
:101FA00079E7364B596A0843586274E74346013370
:101FB000042B00DD73E702ABD11C8900C958023243
:101FC0009200D358DAB2042A00D968E793002E4A67
:101FD000D3589F46294A5369194351615FE7274AFD
:101FE0009369194391615AE7244AD3691943D1612E
:101FF00055E7224A136A1943116250E71F4B5A6A88
:10200000114359624BE71369002BFCD12833F35C71
:102010002B7522681369002BFCD12933F35CEB7616
:1020200022681369002BFCD12A33F35C2B772268DA
:102030001369002BFCD12B33F35C6B770020E4E6B3
:102040001369002BFCD1B36A6B6122681369002B02
:10205000FCD1F36AEB6122681369002BFCD1336B6E
:102060002B620020D1E6C046611D00007C570000B5
:10207000F400002054570000E11500000004004067
:10208000E51400007514000068570000FEE700002A
:1020900010B51A4A1A4B9A4211D01A00194B9A429B
:1020A0000DD2194A03339B1A9B0801339B0000226F
:1020B000134812498C58845004329A42FAD1134A78
:1020C000134B9A420AD2D34311495B1803218B4325
:1020D00004339B18002102C29342FCD10D4AFF2118
:1020E0000D4B8B4393600D4A53687F390B4353600C
:1020F0000B4B98470B4B9847FEE7C04650590000E2
:10210000000000201C000020040000201C00002013
:102110002003002000ED00E000000000004000412E
:1021200031550000252E000008490A78012353404C
:102130000B70002A04D08022D200054B9A617047B0
:102140008022D200024B5A61F9E7C046C400002049
:102150008028004010B50549054B1B880B80054BB6
:102160001B684B60044B984710BDC0461801002007
:1021700008000020F4010020FB0A000010B504490B
:1021800040230B80034B4B60034B984710BDC04668
:102190001801002078000020D30A000010B508497B
:1021A00000234B7006220A700B724B7202334B6095
:1021B0000120044B98470120034B984710BDC046AF
:1021C00008010020D11200007D13000030B583B05B
:1021D00001AC012363700022A270237021000A2049
:1021E0001F4DA84721000B20A84721001120A84718
:1021F00021000F20A84721000C20A84721000D2016
:10220000A84721001020A84721001420A84721003A
:102210003020A84721003120A84721001B20A847D3
:1022200021003720A84721001520A84721003E2083
:10223000A84721003620A84721002820A8472100D0
:102240002D20A84721002E20A84721002F20A84795
:1022500021002A20A84721002520A84703B030BD2F
:102260001511000070B5134C2000134B984705233F
:102270006370002323710333A370104D22001049B3
:102280002800104B98472A68138C9BB2002BFBD177
:102290008021C9030C4B19600723137193711378C4
:1022A00002210B431370054B1A68138C9BB2002B51
:1022B000FBD170BDC801002019010000CC02002034
:1022C000000C00435D01000000E100E070B582B049
:1022D00001AC002363700125A570E3702570210017
:1022E0000320044EB047257021000620B04702B0FD
:1022F00070BDC046E115000010B5024B9847024B77
:10230000984710BD65220000CD22000010B50400E2
:10231000344B1A688020C00380233349C850138C83
:102320009BB2002BFBD107331371937113780221F9
:102330008B4313702B4B1A68138C9BB2002BFBD171
:102340002A482B4B9847092C06D8A400294B1B5927
:102350009F460022254B1A71244A05235370023BE5
:102360009370204C24492000244B98472268138CFA
:102370009BB2002BFBD18021C9031B4B19600723A3
:1023800013719371137802210B431370154B1A6864
:10239000138C9BB2002BFBD110BD0122134B1A7181
:1023A000DAE70222114B1A71D6E703220F4B1A719A
:1023B000D2E704220D4B1A71CEE705220B4B1A719E
:1023C000CAE70622094B1A71C6E70722074B1A71A2
:1023D000C2E70822054B1A71BEE70922034B1A71A6
:1023E000BAE7C046CC02002000E100E0C8010020AE
:1023F00019010000B8570000000C00435D01000007
:1024000030B5194B19680B8C9BB2002BFBD10B7E9E
:10241000022213430B760B8C9BB2002BFBD10120C5
:102420000425022401E010420AD18B79DBB20200BC
:102430001A401D4200D022431C42F4D02A43F2E746
:10244000888C80B201238B718A79D2B213405407F1
:1024500001D502242343920701D5042213435B07CD
:1024600001D502238B7130BDCC02002010B582B0A3
:1024700001AC2000054B98470223637022000449F9
:102480000448054B984702B010BDC0461106000035
:1024900000300042300200201D06000070B582B0FE
:1024A00068460A4B98470A4C6A4600212000094EAC
:1024B000B04700212000084DA8476A4601212000AE
:1024C000B04701212000A84702B070BDE50600001A
:1024D00030020020F90600006D07000070B582B0E0
:1024E00001AC002363700125A570E3702570210005
:1024F0000220044EB047257021000520B04702B0ED
:1025000070BDC046E115000010B5054B9847054B5E
:102510009847054B98470548054B984710BDC0465E
:102520006D2400009D240000DD2400003002002006
:102530009106000070B504000378132B00D94AE11E
:102540009B00A64AD3589F46A54BA64A8021490224
:10255000516180208002506180252D019D61802580
:10256000ED005D615861802000025861802080018B
:1025700098618020400158618020000558618020CA
:10258000C003506180208003986180200004506166
:102590005961802252035A61934A01219348944B16
:1025A00098470023934A1380934A1380934A1380D9
:1025B000934B1A68934B1A6001232370914B186850
:1025C00070BD02230370F9E78F4B1B78012B06D0F7
:1025D0008E4B1B78012B05D002230370EEE70233EC
:1025E0000370EBE702330370E8E77D4B802189023B
:1025F00059617C4A8020400290618020000558612A
:1026000080200002586151618021C90351618022FC
:1026100092015A61802212015A61802292035A610A
:102620000023744A1380754A1380754B1A68754BE2
:102630001A600120764B984704232370BEE780225E
:102640009202674BDA6100226B4B1A8005230370FC
:10265000B4E780221202624B9A6106230370ADE751
:10266000802212025E4B5A6107230370A6E7802284
:1026700092025B4BDA61082303709FE72022594BDB
:102680009A6180221202564B9A61624B1A685D4B26
:102690001A600923037091E7524B20225A6180216E
:1026A00009024F4A5161802292029A61544B1A6882
:1026B000544B1A600A23037080E7494B8022520270
:1026C0009A6180229202DA610B23037076E78022FE
:1026D0005202434B5A610C2303706FE780221202AF
:1026E0003F4B9A610D23037068E73D4B80225203F4
:1026F0009A61802212025A610E2303705EE78022E3
:102700005203374B5A61374B802292025A61802222
:1027100052025A611023037050E780221205304B99
:102720009A610022344B1A801123037046E78022FD
:10273000D2032C4B9A61122303703FE7364B984724
:102740002E4B1B88DA070ED5344A01091568E95467
:102750001268D31800015870284A13880133138077
:10276000132323702AE72D4E3268D1180A780F25DB
:10277000AA4305052D0F2A430A703268D3185870F2
:10278000EAE780221205164B5A618022D203154BCC
:102790005A61194A138801339BB21380032B05D960
:1027A0000022154B1A800F23037007E711230370D3
:1027B00004E7104A138801339BB21380032B07D917
:1027C00000220C4B1A80114B1A7002230370F5E69D
:1027D00004230370F2E600230370EFE6E0570000E5
:1027E0000028004080280040E70C00003002002054
:1027F0007D070000BC00002074000020BA0000200B
:10280000040000201800002076000020C5000020F1
:102810000D23000014000020012400000C00002003
:1028200010B504001C4B1B78012B1DD01B481C4B02
:1028300098471C4B18601C4B181A1C4B18601B4BFC
:10284000196820001A4B9847226804211F20E024B1
:1028500093681942FCD1537983431AD0202B1AD0A4
:10286000402BF5D11471F3E7124B1B78012B03D0E9
:10287000114A0E4B1A60E2E70848094B9847094B8A
:102880001860094B181A094B18600022094B1A707E
:10289000D5E72023537110BDB90000207700002038
:1028A0003525000088020020FFFFFF00C000002047
:1028B000A91B0000B80000205F79FE0010B5144B82
:1028C0000021002099800022D8715A709A701A72E3
:1028D0005A729A72DA721A739A735A731A77196261
:1028E000596219855985998534229854303ADA709D
:1028F000023199710139197014242A201C54B434FE
:1029000001381C541974113159619A6110BDC046C7
:10291000F8010020F0B5D646474680B583B0009157
:10292000324BC118324A042391420CD93149013B40
:10293000314A82188A4206D900223049304BC318E6
:1029400099425241531C984658432E4B98470200D7
:102950000B002D4E00202D49B0472D4B9A4698472D
:102960002C4DA847C7B22C4C0098A04700222B4BF7
:10297000B047009001913800A04702000B0000987A
:102980000199274CA047D047A847C0B2254B1A68E9
:102990001369002BFCD13333137293721368022135
:1029A0008B431360204A2A23D054013BD7541D4C3B
:1029B0001E4920001E4B984722681369002BFCD14A
:1029C000136802210B43136001201A4B98471A49E0
:1029D00043464B600120194B98470120184B9847FC
:1029E00003B00CBC90469A46F0BDC046BAC2FFFF89
:1029F0006C140000D82800004DAEFFFF8C7A000058
:102A00007485FFFF45500000C53D000080846E4185
:102A10001D2F000011310000C14F0000000059407F
:102A20002D4400006C020020F80100200008004343
:102A30009D1D0000BD13000008010020D112000000
:102A40007D13000010B5074C07492000074B98473D
:102A50000023E37202332373054B63600123237267
:102A600010BDC04620010020001400427516000071
:102A7000FFFFFF0010B5024B9847024B984710BD6F
:102A8000BD280000452A000010B5054C002205496C
:102A90002000054B984700212000044B984710BDAB
:102AA0008C02002021280000D91B0000F11B00002F
:102AB00010B5134C134A14492000144B9847226850
:102AC0001369002BFCD1136802210B431360104BD8
:102AD0001A68104B9B1A104A1360104A1360104C6E
:102AE00010492000104B9847226802219368194230
:102AF000FCD1136802210B4313600C4B984710BDA7
:102B00006C020020F8010020000800439D1D000019
:102B100004000020FFFFFF00C00000202001002073
:102B20008C02002000140042C5170000892A000012
:102B300010B5040003780F2B00D995E09B004B4A99
:102B4000D3589F4680780002E378C01800022379AA
:102B5000181880B2464B18806178464B1980464B56
:102B60009847002010BD43781B028078C01880B2BF
:102B7000424B98474249434B9847434B984702057D
:102B8000120D01214148424B98470020EAE7437863
:102B90001B028078C01880B2384B98473849394BAF
:102BA0009847394B98470205120D00213748384B9A
:102BB00098470020D6E70120364B9847364B984778
:102BC00004232370030A6370A0700320CAE709205E
:102BD000304B9847304B984705232370030A6370A6
:102BE000A0700320BEE706202A4B98472A4B98473F
:102BF00006232370030A6370A0700320B2E701224A
:102C0000264B1A700020ADE7254B1888AAE74378B9
:102C10001B04827812029B18C2789B18214A136009
:102C200000209FE7204800230370204B9847002096
:102C300098E701221E4B1A70002093E700221C4BDC
:102C40001A7000208EE701221A4B1A70002089E7C3
:102C50000022184B1A70002084E70123164A1370D3
:102C60000E4A137000207DE700207BE730580000FB
:102C700014010020C40100201529000005370000C0
:102C8000D70B923F4D310000E130000030020020B0
:102C90007D0700000D23000001240000C500002076
:102CA00010000020140000207700002035250000CF
:102CB00076000020B9000020B800002010B5044BB9
:102CC00019680448044B9847044B188010BDC0464F
:102CD000F401002078000020312B000008000020C3
:102CE00030B58BB000236A461370802292030192A4
:102CF0006A46137453740593137653769376079349
:102D00000893242269468B5401328B5401328B5430
:102D100028336A468B814F33CB818023DB014B8183
:102D2000FA239B000B810D4D0D4928000D4B984750
:102D30002C6820000C4B98471F2318401E3B8340F3
:102D40000A4A136029680322CB691A42FCD123681E
:102D50000222134323600BB030BDC046EC020020BA
:102D6000000800422D090000DD0F000000E100E036
:102D700070B582B001AC002363700122A270E370D1
:102D80000326267021000820034DA8472670210045
:102D90000920A84702B070BDE1150000F8B5144C39
:102DA000022214492000144EB0472525635D0422F9
:102DB00013436355022723689F75013A0F4920008A
:102DC000B047635D08221343635523689F75002253
:102DD0000B492000B047635D012213436355094945
:102DE0002000B047635D022213436355F8BDC0461F
:102DF000EC02002055210000B90A00007D210000EE
:102E000029210000BD2C000010B5034B9847034B4F
:102E10009847034B984710BD712D0000E12C00002E
:102E20009D2D0000F8B5274B9847274B9847274B17
:102E30009847274B9847274B9847274B9847274D4C
:102E4000274A01212800274CA047274A00212800B3
:102E5000A0470022254B1A70254A264B1A60264AA5
:102E6000264B1A60264B9847264B98470122264B43
:102E70001A70264B1B88002B0AD0002324484D21B2
:102E8000224A0468E1540133DBB214889C42F8D82A
:102E9000002200251F4804211F4E8027FF00002428
:102EA00000E02200036A1942FBD1002AFAD1002D6A
:102EB00003D1776101320135F4E7B7612B001500CA
:102EC0001A00EFE7151600009D210000CD2100003B
:102ED000092E000009250000F92200003002002020
:102EE000740400007D070000AF060000770000209A
:102EF000DC05000004000020204E0000140000202B
:102F0000752A0000B12A0000760000201000002081
:102F10000C0000200028004080280040F8B5264A18
:102F20004B005B0D9A1807000C00132A10DC002AD6
:102F300039DB224B13410B4230D08024240314414F
:102F4000002064189C430600250030002900F8BDCD
:102F5000332A0CDD80230600DB000D009A42F4D1F9
:102F600002000B0000F01EFC06000D00EDE7144D02
:102F70000600AC46012563446D42DD40AC46634625
:102F80000D000342E1D033239A1A323B93401818C4
:102F9000874200D94C1C63469843D4E706000D00D5
:102FA0000028CAD1D1E7C90FCC070020531CCAD1D1
:102FB000044B1C43C7E7C04601FCFFFFFFFF0F00A7
:102FC000EDFBFFFF0000F03F002243088B4274D36B
:102FD00003098B425FD3030A8B4244D3030B8B421A
:102FE00028D3030C8B420DD3FF22090212BA030C23
:102FF0008B4202D31212090265D0030B8B4219D304
:1030000000E0090AC30B8B4201D3CB03C01A524123
:10301000830B8B4201D38B03C01A5241430B8B426B
:1030200001D34B03C01A5241030B8B4201D30B0354
:10303000C01A5241C30A8B4201D3CB02C01A52417B
:10304000830A8B4201D38B02C01A5241430A8B423E
:1030500001D34B02C01A5241030A8B4201D30B0227
:10306000C01A5241CDD2C3098B4201D3CB01C01A41
:10307000524183098B4201D38B01C01A524143094B
:103080008B4201D34B01C01A524103098B4201D339
:103090000B01C01A5241C3088B4201D3CB00C01AA6
:1030A000524183088B4201D38B00C01A524143081E
:1030B0008B4201D34B00C01A5241411A00D2014643
:1030C000524110467047FFE701B5002000F006F8B6
:1030D00002BDC0460029F7D076E770477047C0466A
:1030E0009E2110B5C905041C02F052F8002803D136
:1030F000201C00F0E7FA10BD9E21201CC90500F03D
:1031000045F900F0DFFA80231B069C466044F2E795
:1031100070B500220C4B04000D0001F0FFFF0028E9
:1031200004D12000290001F017FF70BD064B0022DA
:103130002000290001F0FAFB01F00EFF80231B069E
:103140009C466044F1E7C0460000E041F8B55746B0
:103150004E464546DE46E0B54702460088467F0AB1
:10316000360EC40F002E47D0FF2E24D0FB00802740
:10317000FF041F43002399469A467F3E43465D0263
:103180005800DB0F6D0A000E984643D0FF283BD055
:10319000EB0080250022ED041D437F383618731C98
:1031A00041469B464B46614013430F2B64D87548FC
:1031B0009B00C3589F46002F42D108239946063BE7
:1031C000FF269A46DAE74146022A28D0032A00D190
:1031D000CEE0012A00D0ACE0114000200022CCB2A9
:1031E0004002D205400AE407104320433CBC90460D
:1031F0009946A246AB46F8BD002F15D10423994647
:10320000033B00269A46B9E7FF200222002DC5D0D5
:103210000322C3E7002D19D100200122BEE70124BB
:10322000FF220C400020DBE7380001F0BBFF7626D0
:10323000431F9F4000237642361A99469A469DE7DF
:103240000C239946093BFF269A4697E7280001F090
:10325000A9FF431F9D4076235B42181A00229DE779
:1032600080200024C003FF22BAE73D005246ABE7AE
:103270003D0021005246A7E73B0C9C462A04120C55
:103280002B0C1400604665463F043F0C7C434243D0
:103290005D437B43270C9B18FF18BA4203D9802358
:1032A0005B029C46654424043A04240C12199301E1
:1032B0005C1EA3413F0C920E7D191A43AD011543CC
:1032C0002B0104D501235E466A081D4015433200D8
:1032D0007F32002A25DD6B0704D00F232B40042BFF
:1032E00000D004352B0103D53200274B80321D401E
:1032F000FE2A94DC0124A801400AD2B20C406FE7F8
:103300008020C003074207D0054205D12843400270
:10331000400A4446FF2263E738434002400AFF2246
:103320005EE70124A31A1B2B05DD0C4000220020C0
:1033300056E75E46CBE72A002020DA40C31A9D40BC
:103340002B005D1EAB4113435A0704D00F221A40D5
:10335000042A00D004335A0104D5012401220C4070
:1033600000203DE701249B01580A0C40002237E76A
:1033700080200124C00328434002400A0C40FF2261
:103380002EE7C04670580000FFFFFFF7F0B54F462C
:10339000D64646464400C0B5C20F47024802400A1E
:1033A000844666467B0A4800C90F9A46240E1500DB
:1033B000DB00000E8946F600FF2800D18FE00121D6
:1033C0004F464F403900914266D0221A002A00DC55
:1033D0009DE000283DD1002E00D18BE0511E002938
:1033E00000D0B5E001249B1B5A0144D59B019F09E5
:1033F000380001F0D7FE05388740844200DD96E0B2
:10340000041B3A0020200134E240041BA7403B008B
:103410005F1EBB41002413435A0704D00F221A40F9
:10342000042A00D004335A0127D50134FF2C00D1DF
:1034300079E001229B015B0AE4B22A405B02E405C9
:10344000580AD207204310431CBC90469946A24616
:10345000F0BDFF2CE0D08021C9040E431B2A7BDC89
:1034600031002020D140821A9640721E96410E43B0
:103470009B1B5A01BAD45A07D0D10122DF082A4037
:10348000FF2C33D1002F00D1A8E08023DB033B4386
:103490005B025B0AFF24D1E7211A00294CDD0028DA
:1034A0002AD0FF2CB8D08020C00406431B2900DDA1
:1034B000AFE030002027C840791A8E40711E8E413F
:1034C00006439B195901D6D50134FF2C00D185E064
:1034D00001227A491A405B080B4013439CE7002EF7
:1034E00000D070E76BE73B1EC5D100227B025B0A70
:1034F000E4B2A3E714008FE7002E4DD0481E002849
:1035000057D19B1901245A01B5D50224E0E7002ABE
:1035100025D1621CD2B2012A72DD9F1B7A0135D5FA
:10352000F71A0D0064E7012200232A4086E73B00DA
:10353000634A241A13406FE700296CD1611CC8B29A
:1035400001284EDDFF2949D09B195B080C0063E779
:10355000FF2A41D00A0081E701269B1B89E7002C46
:103560001CD0FF2821D08024E404524223431B2A8C
:1035700000DD96E01C002025D440AA1A93405A1E74
:1035800093412343F31A04000D002DE7002F00D0D0
:103590002EE700220024A9E70C003DE7002B58D0BD
:1035A000D243002AEED0FF28E1D13300FF240D00E2
:1035B00032E7FF2910D0010078E7002B6ED0FF24FE
:1035C000002E00D128E780225146D203114203D0B9
:1035D0006146114200D13300FF241DE7FF24002380
:1035E0002CE7002CE9D1002B63D0002E00D113E78B
:1035F0009B195A0100D43EE7314A0C0013400BE7F7
:10360000002C1ED1002B2FD1002E4FD033000D00E7
:1036100002E7012655E7002C1FD1002B43D0C943F8
:1036200000290BD0FF2839D01B2944DC1C0020279F
:10363000CC40791A8B40591E8B4123439B190400BF
:1036400040E7002B1AD1002E24D180270022FF034F
:103650001BE7330004000D00DEE6FF281ED08024A7
:10366000E40449422343DFE7002E00D1D4E69F1B48
:103670007A0100D437E7F31A0D00CDE6FF24002EBF
:1036800000D1C9E680225046D2031042A4D0604641
:103690001042A1D133000D00FF24BDE63300FF240A
:1036A000BAE601236EE733000400B5E600270022E6
:1036B0001CE73300B0E60123C0E7C046FFFFFF7DF3
:1036C000FFFFFFFB41024300C20F490A1B0E00200F
:1036D0007E2B0DDD9D2B0CDC802000040143952BFF
:1036E0000ADC9620C31AD9404842002A00D10800BB
:1036F0007047034BD018FBE7963B9940F4E7C04670
:10370000FFFFFF7F70B5002830D0C317C4185C409E
:10371000C50F200001F046FD9E231B1A962B0DDCE1
:103720009622D21A94402A006402640ADBB2640230
:10373000DB05600AD2071843104370BD992B19DCD2
:103740009922D21A002A29DD94402200144C1440F8
:10375000510704D00F210A40042A00D0043462012A
:1037600013D4A401640ADBB22A00E0E7002200239C
:103770000024DCE705222100121AD140B922D21A16
:103780009440621E94410C43DAE7054B2A001C402A
:103790009F23A4011B1A640ADBB2C8E72200D5E705
:1037A000FFFFFFFBF8B54546DE4657464E460C0385
:1037B000E0B54E00C90F88460D00610A440F0C4366
:1037C000C70019035800DB0F9B464B0A510F0B43F0
:1037D000760D400D1900D200D84500D1AEE0351A63
:1037E000002D00DCF6E000280FD1134300D1DBE010
:1037F0006B1E002B00D037E1BA1A9742BF41641A02
:103800007F42E41B0126170024E0C64B9E424DD0A8
:1038100080231B041943382D00DD07E11F2D00DD37
:1038200038E12020431B9A460B00504683409946BE
:1038300013004846EB401843030050468240501E98
:103840008241E9401A43BA1A611A9742A44117000B
:1038500064420C1B230262D56402650A002D00D16C
:10386000DFE0280001F09EFC0300083B1F2B00DD79
:10387000D2E020223C00D21A9D40D4409F402543F4
:103880009E4200DDC4E09E1B731C1F2B00DDF1E097
:10389000202238002900D21AD840914097402C00AD
:1038A0000143781E8741DC4000260F437B0709D087
:1038B0000F233B40042B05D03B1DBB42BF417F4241
:1038C000E4191F0023022CD5964B01369E4200D1ED
:1038D0009AE04546944BFF081C4060077605640259
:1038E0000743240B760D00212403230B0C0D8F4A74
:1038F00024051C431440330523435B00ED075B089C
:103900002B43380019003CBC90469946A246AB4672
:10391000F8BD6446044300D111E2040067467B070A
:10392000C6D145466007FF080743E4087D4B9E4229
:1039300030D024037605240B760DD4E7331A9A464B
:10394000002B78DD002831D076488642AED080202A
:10395000000401435346382B00DCE9E00A43511EC2
:103960008A410021D219BA42BF4109197C4217008D
:103970000C192302D3D56B4B01369E4200D13AE19C
:103980000120694B1C407B0807401F43E0070743A9
:1039900064088BE723003B4300D1CBE18022120374
:1039A00014432403240B9EE72E007FE708001043F6
:1039B00000D1B4E0581E002800D0DEE0BA18BA42A8
:1039C0009B4164185B42E418170001262302A6D528
:1039D0000226D5E7002D6ED1701C4005400D012850
:1039E00000DCF9E0B81A844687428041E51A40427B
:1039F0002D1A280200D489E0D71BBA4292411C1B21
:103A00005242A51AD84629E74546002400276AE70E
:103A1000454CF61A2C4049E73D00283885400027E0
:103A20002EE7380001F0BEFB20301DE70A43511E8F
:103A30008A41002107E7002B00D0F3E0701C43050A
:103A40005B0D012B00DCADE0364B984200D1D1E09C
:103A5000BA18BA42BF4164187F42E419E707520816
:103A600017436408060021E72E48854200D193E001
:103A70001D00D0E629001F3EF140202B00D18DE033
:103A80004022D31A9D402F437D1EAF4100240F4397
:103A9000002644E72B000800203BD8400300202DDF
:103AA00000D17DE04020451BA9400A43511E8A41B8
:103AB00000211A43C7E6002E50D01A4EB04257D00C
:103AC00080266B429946360434434B46382B00DD42
:103AD000D6E01F2B00DD35E12026F51A2600AE408A
:103AE000B2463E00DE40AC46350056462E436546A3
:103AF000AF407D1EAF41DC403743D71BBA429241F5
:103B00000C1B5242A41A0600D846A3E66446674638
:103B10002C4300D0A2E600250026002706E71E0061
:103B2000C4E6C046FF070000FFFF7FFFFFFF0F80D6
:103B30001F2B63DC2020C31A080098409C46834654
:103B400053461000D84003005846184363469A4035
:103B5000531E9A4153460243D94003E726003E4391
:103B600006D0EB439946002BC7D0944EB042ACD15F
:103B70000C0017000600D84698E6904B9A450BD0EB
:103B80008246E7E6002800D09EE01800104300D1EE
:103B9000E9E01C001700D846884E87E6002572E74A
:103BA000002182E723003B43002E00D0ABE0002B36
:103BB00000D1E7E00B00134300D177E6BA18BA4210
:103BC000BF4164187F42E419230200D4F2E07C4B29
:103BD00017001C40060069E620003843002ED1D1B2
:103BE00000285BD11C00144300D1A8E01C00170082
:103BF000D8465BE606000024002797E650460B00F7
:103C00002038C34099465346202B00D195E04023ED
:103C100050461B1A99400A43511E8A414B460021C7
:103C20001A439FE6002E30D126003E4367D0DB4387
:103C30009A46002B1CD0614EB04260D05346382BC0
:103C400000DD96E01F2B00DD9FE02026F31A260002
:103C50009E409C46B34653463E00DE4033005E46DF
:103C60001E4363469F407B1E9F415346DC403743C3
:103C7000BF189742924164185242A418060078E691
:103C800027437C1EA741002437E74C4EB04236D074
:103C900080265B4236049A463443CFE7180010432F
:103CA00000D103E6B81A84466745AD41E01A6D427B
:103CB000401B050200D42CE6D71BBA4292411C1BC4
:103CC0005242A41AD846F1E51800104300D163E728
:103CD000F808670707438020E4080003044208D07F
:103CE000DD08054205D1D208590711430F002C0009
:103CF000D8467B0FE4001C43FF00304ED6E50C0095
:103D000017000600D2E5002B38D00B00134300D17A
:103D100042E7F808670707438020E40800030442ED
:103D2000E7D0CB080342E4D1D208490711430F0082
:103D30001C00DEE700270024D5E500216BE7002505
:103D40000027F3E54E462500203EF5404B462E0069
:103D5000202B2DD04025ED1AAC4027437C1EA741D7
:103D600000243743C9E6802400252403134E00278E
:103D7000DCE527437C1EA741002479E70C001700EF
:103D80000E4E93E50C00170090E556462300203EAA
:103D9000F34099465346202B0ED0402356469B1B9A
:103DA0009C4027437C1EA7414B4600241F435FE7EE
:103DB0000024D2E71700B2E50024F2E7FF07000075
:103DC000FFFF7FFFF0B557464546DE464E46E0B55D
:103DD0004C000E0387B0834692461D008046360B8A
:103DE000640DCF0F002C4FD06F4B9C4235D08023F9
:103DF000420F1B04F600134333439946C300984611
:103E00006A4B00269C460023644403932B031B0B40
:103E10009B466B00ED0F50465B0D01955ED0624AEC
:103E2000934253D05A46D1008022400F12040243DD
:103E30000A4393465246D1005C4A944600226344AA
:103E40003800684084460290E41A16430F2E00D9C9
:103E5000B4E0574BB6009B599F4603003343994645
:103E60006CD100239846023308260393CEE7CB4655
:103E70004146039A0197022A65D1019B4A4C9C4610
:103E80000023002298466BE00300334399464ED04E
:103E9000002E00D1BCE1300001F084F903000B3B9F
:103EA0001C2B00DDACE11D22D31A5A460100DA407A
:103EB00008398E401300334399465B468B40984641
:103EC00000233C4C0026241A03939FE751465A4690
:103ED000114329D1002293460232B1E759460143EA
:103EE0001ED05B46002B00D19EE1584601F05AF9E6
:103EF00003000B3B1C2B00DD8FE102005946083A02
:103F000091408B461D21CB1A5146D9400B00594692
:103F10000B4351469B469140264B00221B1A8FE7CC
:103F2000002301229B468BE75146032288E70023AA
:103F30009846013304260024039367E70323B14620
:103F400003930C2662E7032A00D15CE2019B012A5D
:103F500000D0E4E113409C46002300240022984650
:103F600000211203130B0A0D12051A432305124CEC
:103F700040462240134362465B00D2075B0813436E
:103F8000190007B03CBC90469946A246AB46F0BD2E
:103F9000002380229C4612039846034CE0E700234E
:103FA000014C00229846DBE7FF07000001FCFFFF01
:103FB000B05800000DFCFFFFFFFF0F80D94500D96E
:103FC00039E100D134E1002346464D469A46013C92
:103FD0005B460A0E1B021A430B02170C03931304D1
:103FE0001B0C3900280090460193FEF7EDFF0200FC
:103FF000019B83465A43280039009146FFF76AF82F
:10400000350C09040D43A9450DD95B464544013BD8
:10401000A84500D93AE1A94500D837E102235B421F
:104020009C464544E3444B46EB1A39001800049380
:10403000FEF7CAFF019B05004343390004989946E7
:10404000FFF748F8330409041B0C0B43994509D9C1
:1040500043446A1E984500D91AE1994500D817E1F2
:10406000023D43444A469B1A5A4612042A43039986
:104070009346100C0A0C914609045A46090C4E4608
:104080000D001204120C45430591514372437043D5
:1040900052190E0CB218954203D980256D02AC4618
:1040A0006044150C09041204090C281852188342A4
:1040B00000D2CEE000D1C8E01D1A53469E1AB24588
:1040C00092415242AB1A9A46984500D117E1390005
:1040D0001800FEF779FF019B050043433900504665
:1040E0000493FEF7F7FF04980B04310C1943884240
:1040F00009D941446B1E884500D907E1884200D8A0
:1041000004E1023D4144049BCB1A1800390004939A
:10411000FEF75AFF019B82464343390004980193FE
:10412000FEF7D8FF01980B043104090C19438842AB
:104130000DD953464144013B884500D9E8E0884207
:1041400000D8E5E002235B429C464144E244019BE7
:104150002D04CE1A51462943059D4F462A000B04D3
:10416000080C1B0C5A4345437B4378435B19170CDF
:10417000FB189D4203D980256D02AC4660441D0C9E
:1041800012041B04120C28189B18864200D293E0DC
:1041900000D18EE001231943A04BE318002B00DC73
:1041A00099E04A0700D09EE05A46D20106D55A4609
:1041B0009B4B1A4080239346DB00E318994A9342B5
:1041C00068DD0123029A984C1A40002394469846D1
:1041D0000022C5E680224B46120313420AD05B46FA
:1041E000134206D11A431203120BAC4688468E4C7A
:1041F000B6E64B461A431203120BBC468A4CAFE696
:1042000003005A46283B9A4000239146984657E6B9
:10421000584600F0C7FF203040E603005246283BD6
:104220009A400021934677E600F0BCFF20305FE61D
:10423000884500D2C7E64B46DE075D0843465B086B
:104240001E434346DB079A46C2E60025924500D34B
:1042500033E7039E5946B446E244B245AD416D4250
:104260004544EB180139984507D2984200D97FE0C0
:1042700000D1BCE01D1A8B461FE79845FAD1039D7B
:104280005545F2D943468B461D1A16E79B46CAE6AA
:104290001500E7E65A46C90852070A435B059046EF
:1042A0005C0D5A460123029952021940120B8C46AA
:1042B00056E6002B00D16FE746444A1EB04529D987
:1042C0001100864200D065E7039A934200D061E76F
:1042D00062E7012149420120C21A382A21DD029BEE
:1042E00003409C4638E60F220A40042A00D15BE7CF
:1042F0000A00111D914292415242934454E7474BA8
:10430000E318002BE5DD01225242F2E71D00FAE638
:104310009A461CE7B04239D86ED011003AE70293B2
:104320003AE71F2A3CDC20239B1A0C005846994090
:1043300098404B1E99415B46D440D34020430843EC
:104340001A00430709D00F230340042B05D00100B6
:10435000081D88429B415B42D21813023AD50123C3
:10436000029A01241A400023944698460022F7E559
:10437000022149428C46039DE344AC46E244AA45EF
:10438000AD416D424544ED182D1A96E68A1E0399FB
:104390004D008D42894149424144761803958FE78B
:1043A0001F204042C31A5846D8400300202A28D074
:1043B00040205D46821A954029434A1E9141194387
:1043C000072300220B4009D00F2300220B400800D6
:1043D000042BBDD1010053075202120BC908194327
:1043E000012388460299002419408C46B8E55245BD
:1043F000BED88B46002560E6039D9D42C6D31100C2
:1044000062E70025D8E780225B4612031A43019B2E
:104410001203120B9C468846034CA1E5FF030000E3
:10442000FFFFFFFEFE070000FF070000F0B5574644
:104430004546DE464E46E0B50C0398464E00230B3B
:1044400087B0070092469B46760DCD0F002E6BD0AD
:104450006D4B9E4235D080245B46420F2404DB0026
:1044600014431C43C3009946684BA3469C46002353
:1044700000276644029343461C035A00DB0F504654
:10448000240B520D984600D176E05F4B9A426DD0D6
:104490008023410F1B040B435C49E4008C461C4302
:1044A000C300002062444146B6186940721C019165
:1044B000944607430F2F00D9B0E0554ABF00D259A8
:1044C00097465B460343994600D087E000239B460E
:1044D000023308270293CEE742460192022867D0B2
:1044E000032800D10EE2012800D062E1002300245D
:1044F0000022994601990140CDB2002112030B0D13
:10450000120B1B051343434A240513401C4364004C
:10451000ED0764082C434846210007B03CBC904698
:104520009946A246AB46F0BD034399464FD05B4641
:10453000002B00D189E1584600F034FE03000B3B0C
:104540001C2B00DD7AE11D22D31A3A0001005C46E3
:10455000DA4008398C4013008F4023439B46B9460C
:1045600000232D4E0027361A029384E75346234337
:104570002AD10024022096E75346234320D0002C62
:1045800000D157E1200000F00DFE03000B3B1C2B77
:1045900000DD49E11D21CB1A51460200D9405346A6
:1045A000083A944093400C431B4A121A00207AE7C1
:1045B0000125019B144C1D400023002299469CE7D5
:1045C0000024002201206EE7534603206BE70023FE
:1045D0009B4601330427002602934CE703238146C0
:1045E0000C27029347E780220023002512039946F7
:1045F000054C82E75C464B4602986FE75C464B46AB
:10460000019502986AE7C046FF07000001FCFFFF22
:10461000F0580000FFFF0F800DFCFFFF4A4649469F
:10462000170C1A0C1B041B0C08041900000C414346
:104630001500884619007D43794303958946290072
:10464000150045434D44029545462D0CAA46029D52
:104650005544A94506D98A46802149028946CA445B
:1046600051460391290C0491414609042D04090C7B
:1046700088462900250C24044144240C059121007E
:1046800041438846210079438A4668434146504465
:104690008146080C48446F43824503D98021490272
:1046A00089464F44010C89463900494402914146EC
:1046B0000F0404993F0C88460004C0198044414609
:1046C000049159460F0C0904090C884659438A463F
:1046D00039005143894641464A435146090C8B46AD
:1046E0007B43D2185A44934203D980235B029B46F2
:1046F000D94451460904090C8A46414661437C432A
:10470000130C12044B445244A1468A463C004146D5
:104710006C434D4351464D440F0C7D19A94503D9B7
:104720008021490288464444049F0399B846414485
:104730008B468345804141428846514608042F04F8
:10474000000C3F1858460299101889469042924131
:104750004F44BA46524299469346C244D144CB4450
:104760008F42BF41C245894199459B419345924142
:104770007F4249422D0C52420F435B4213437F1943
:10478000FF185B463C19DB0D059A64021C4343028B
:1047900013435D1EAB415A46C00D034352021343FF
:1047A000E20156D501205A0803401343E2071343A0
:1047B00064085A48604400284DDD5A0709D00F228A
:1047C0001A40042A05D01A1D9A429B415B42E41804
:1047D0001300E20104D58020514AC0001440604417
:1047E000504A904200DDE3E60125DB0862071A43E8
:1047F0006402019B9146220B4405640D1D407CE63A
:10480000802259461203114208D0144206D1224395
:104810001203120B45469946434C6EE65B461A431B
:104820001203120B404C68E603005446283B9C40A0
:104830000023B9E600F0B6FC2030A6E60300283BD2
:104840009F400023BB4699468AE600F0ABFC20302F
:1048500074E6B446ADE701252A1A382A06DD019B25
:1048600000241D4000230022994646E61F2A21DC31
:1048700020252000AD1A1E00AB40A840D6405D1E8A
:10488000AB4130431843D440430709D00F230340C2
:10489000042B05D00300181D98429B415B42E4188D
:1048A000230221D50125019B01241D400023002264
:1048B000994622E61F2521006D42281AC1400800B2
:1048C000202A1DD05F35AA1A944023435C1EA341C1
:1048D000072503431D400022002D09D00F2200248C
:1048E0001A401800042AD6D1030065076402220B7F
:1048F000DB082B4301259946019B00241D40FCE564
:104900000024E2E7802201251203224301991203C9
:10491000120B0D409946044CEFE5C046FF03000022
:10492000FFFFFFFEFE070000FF070000F0B5464650
:10493000D6464F460C03C0B5CD0F4E00610A440F5A
:104940000C43C1005800400D84468A460F001903ED
:10495000500F490A0143C648760DA846DB0FD20026
:10496000844500D1D8E001204340AB4200D1A6E00D
:104970006046351A002D00DC05E1002810D10B003F
:10498000134300D1D7E06B1E002B00D04BE1534600
:104990009F1ABA458041641A4042241A01261EE03B
:1049A000B34B9E4248D080231B041943382D00DDB1
:1049B00019E11F2D00DD4CE120230F005B1B1000CF
:1049C0009A409F40E840531E9A41E94007431743ED
:1049D0005346DF1B611ABA45A44164420C1B2302F3
:1049E00000D4C5E06402650A002D00D1F6E028007D
:1049F00000F0D8FB0300083B1F2B00DDE9E020227C
:104A00003C00D21A9D40D4409F4025439E4200DD89
:104A1000DBE09E1B731C1F2B00DD0AE12022380007
:104A2000D21A290097402C009140D8407A1E974115
:104A3000DC40002601430F437B0709D00F233B4096
:104A4000042B05D03B1DBB42BF417F42E4191F0030
:104A5000230225D5864B01369E4200D1AFE0854B1F
:104A600001251C4043466207FF0864027605174390
:104A7000240B760D1D4000212403230B0C0D7E4AD0
:104A800024051C431440330523435B00ED075B08FA
:104A90002B43380019001CBC90469946A246F0BD35
:104AA000012543466207FF081743E4081D40704B89
:104AB0009E4236D024037605240B760DDBE7634651
:104AC000F31A002B00DC94E06046002835D06848DB
:104AD0008642B1D080273F043943382B00DCFDE00B
:104AE0000A43170000217A1E9741574457458041D9
:104AF000091944420C1923023AD55D4B01369E42F6
:104B000000D14BE101225B4B1C407B0817401F4347
:104B1000E207174364088FE70800104300D024E73A
:104B200021E723003B4300D1B9E180221203144363
:104B30002403240B9FE72E007EE70800104300D1DA
:104B4000CAE0581E8446002800D0E7E0524452458F
:104B5000804164184042241817000126230207D51B
:104B60000226CFE764462C4300D1B3E12C00674610
:104B70007B0700D062E76307FF081F430125434618
:104B8000E4081D4093E7002D78D1751C6D056D0D6F
:104B9000012D00DCF2E05046801A8245BF41651AC3
:104BA0007F42ED1B8446280200D48CE05046171A41
:104BB000BA4292410C1B5542651B984614E70125E9
:104BC000434600241D40002755E72A4CF61A2C4086
:104BD00032E73D0028388540002717E7380000F00D
:104BE000E1FA203006E70A43170000217A1E9741B8
:104BF000EEE6002B00D0E5E0731C9C465B055B0DE8
:104C0000012B00DC9FE01A4B9C4500D1C5E05244CB
:104C100052458041641840422418E7075208174360
:104C20006408664608E71248854200D185E01D0009
:104C3000BCE629001F3EF140202B00D17FE040223E
:104C4000D31A9D402F437D1EAF4100240F43002601
:104C50008EE72B000F00203BDF40202D71D040233A
:104C60005D1BA9400A43511E8A4100211743AFE64C
:104C7000FF070000FFFF7FFFFFFF0F80002E3ED0E9
:104C8000B34EB44545D0802636046D423443382DAA
:104C900000DDA8E01F2D00DD1FE120262700504683
:104CA000761BB740E84007435046B040461EB0412F
:104CB000EC403843171ABA4292410C1B5242A41AD4
:104CC000664698468BE6644667462C4300D08BE6E2
:104CD000002500260027EAE61E00ADE61F2B60DC5B
:104CE0002027F81A0F00844687401000D840074359
:104CF00060468240501E8241D9401743F5E62600A7
:104D00005046064305D0ED43002DD3D0904EB44518
:104D1000BDD10C001700664698468DE68C4883424C
:104D20000BD06346D9E6002D00D096E00800104372
:104D300000D1E2E00C0017009846854E7CE6002585
:104D400080E700218EE7230050460343002E00D069
:104D5000A8E0002B00D1DEE00B00134300D16BE68E
:104D600052445245804164184042241817002302DF
:104D700000D4FDE6774B66461C405DE625005046B4
:104D80000543002ECFD1002D4FD10C00144300D18C
:104D9000A0E00C00170098464EE666460024002767
:104DA00085E61F000800203FF8400700202B00D1B7
:104DB0008EE04020C31A99400A43511E8A410021C7
:104DC000174392E6002E14D126005046064362D0C7
:104DD000DB43002B5CD18718974292416418524202
:104DE000A418664687E650462043441EA04100248E
:104DF00060E7574EB4454ED0802636045B423443BC
:104E0000382B00DD7FE01F2B00DD8BE02026270004
:104E10005046F61AB740D84007435046B040461EA9
:104E2000B0410743DC40BF18D6E70D00154300D161
:104E300002E65046801A8245BF41651A7F42ED1B4B
:104E40008446280200D48DE65046171ABA42924191
:104E50000C1B5242A41A9846EEE50D00154300D1F2
:104E60006BE750466707C00807438020E40800034B
:104E7000044207D0CD08054204D12C009846D7083B
:104E800049070F437B0FE4001C43FF00304ED3E57E
:104E90002F4EB445B4D10C0017006646CCE5002770
:104EA0000024E8E5002B39D00B00134300D144E780
:104EB000C008670707438020E40800030442E1D0EC
:104EC000CB080342DED1D70849070F431C00D9E7BE
:104ED000002171E700250027E9E52E002700203E8C
:104EE000F740202D2FD04026751BAC405046204364
:104EF000441EA04100243843DCE68024002524031E
:104F0000134E0027D3E5504620430700781E874103
:104F10000024BF1860E70C0017008DE50C00170097
:104F20000B4E89E51E002700203EF740202B0CD0B9
:104F30004026F31A9C4050462043441EA04107439C
:104F40000024BF1848E70024D0E70024F3E7C04658
:104F5000FF070000FFFF7FFF30B5134D0A034B0032
:104F6000120B5B0DC90F0024AB4210DD0F4CA342A6
:104F70000FDC80240E4D64032243ED1A1F2D0BDD40
:104F80000C48C31ADA405442002900D11400200012
:104F900030BD094BCC18FAE7084CE840A4466344FE
:104FA0009A400243EFE7C046FE0300001D040000E4
:104FB0003304000013040000FFFFFF7FEDFBFFFF41
:104FC00070B5002830D0C317C4185C40C50F20004E
:104FD00000F0E8F8174B184A1B1AD21A1F2A18DDDE
:104FE000164AD21A9440002224035B05240B5B0D61
:104FF0000021100024030A0D240B12052243104C3B
:105000001B05224013435B00ED075B082B4319008F
:1050100070BD210091400A000B21081AC4405B05B5
:105020002403240B5B0DE3E700250023002400226A
:10503000DEE7C0461E040000330400001304000035
:10504000FFFF0F8010B5041E28D000F0ABF8154B01
:10505000154A1B1AD21A1F2A15DD144AD21A944077
:10506000002224035B05240B5B0D002110002403A8
:105070000A0D240B120522430D4C1B05224013433D
:105080005B00590810BD210091400A000B21081A4D
:10509000C4405B052403240B5B0DE6E700230024DA
:1050A0000022E2E71E0400003304000013040000A5
:1050B000FFFF0F808446101C62468C46191C634615
:1050C00000E0C0461FB500F0D1F9002801D400214E
:1050D000C8421FBD10B500F02BF94042013010BD91
:1050E00010B500F0C3F9002801DB002010BD01203D
:1050F00010BDC04610B500F0B9F9002801DD002050
:1051000010BD012010BDC04610B500F04BF90028BD
:1051100001DC002010BD012010BDC04610B500F01C
:1051200041F9002801DA002010BD012010BDC04661
:105130008446081C6146FFE71FB500F0B7F8002859
:1051400001D40021C8421FBD10B500F049F840420B
:10515000013010BD10B500F0A9F8002801DB0020D7
:1051600010BD012010BDC04610B500F09FF800280A
:1051700001DD002010BD012010BDC04610B500F0BB
:1051800055F8002801DC002010BD012010BDC046EC
:1051900010B500F04BF8002801DA002010BD012006
:1051A00010BDC0461C2101231B04984201D3000CF2
:1051B00010391B0A984201D3000A08391B0998428A
:1051C00001D30009043902A2105C40187047C046A0
:1051D00004030202010101010000000000000000C0
:1051E00070B5420045024E024C00C30F6D0A120E0C
:1051F000760A240EC90F0120FF2A06D0FF2C03D007
:10520000A24201D1B54206D070BD002DFCD1FF2CC9
:10521000FAD1002EF8D18B4206D00120002AF3D11A
:105220002800451EA841EFE70020EDE7F0B5420059
:1052300045024C02C30F48006D0A120E640A000EAC
:10524000C90FFF2A1ED0FF2821D0002A0AD16E42A2
:105250006E41F6B200280FD1002C0DD10020002D98
:1052600009D005E0002801D1002C01D08B4211D0DB
:10527000012158420843F0BD002EF7D0012001392A
:105280000843F8E7002DDED002204042F3E7002C6F
:10529000DBD0F9E78242EBDC04DBA542E8D8002052
:1052A000A542E8D20121581E0843E4E7F0B54200C8
:1052B0004D024C004602760A120EC30F6D0A240EF0
:1052C000C90FFF2A16D0FF2C18D0002A0AD170422D
:1052D0007041C0B2002C15D0002805D00120013942
:1052E0000843F0BD002C13D0994214D001205B423A
:1052F0001843F6E70220002EF3D1E4E70220002D48
:10530000EFD1E2E7002DE7D10020002EE9D0EDE754
:10531000002DE9D1EAE7A24206DCDFDBAE4203D88A
:105320000020AE42DAD3DCE7012049420843D8E747
:10533000F0B54F464646D6465C00C0B51F03DB0FAE
:105340009A46174B0E034D0084468046360B6D0D72
:10535000C90F91463F0B640D01209D4208D09C422D
:1053600001D0A5420BD01CBC90469946A246F0BD88
:1053700063463343F7D1AC42F5D13A43F3D1012030
:10538000BE42F0D1C845EED1514507D0002DEAD13B
:1053900063461E433000461EB041E4E70020E2E7CA
:1053A000FF070000F0B54546DE4657464E46E0B5DD
:1053B0001F033D0B2C4F0E034C00AB465D00844693
:1053C000360B640DC90F90466D0DDB0FBC422AD021
:1053D000254FBD422DD0002C0FD130430700814610
:1053E00078427841C0B2002D17D15F463A4314D1BC
:1053F0004B460020002B0AD006E0002D02D1584673
:10540000024301D0994218D04842012108433CBCD4
:1054100090469946A246AB46F0BD0028F2D0012046
:10542000013B1843F3E737000743D1D00220404245
:10543000EDE75F461743CED0F8E7AC42E4DC03DA91
:10544000481E01210843E2E75E45DDD806D0002072
:105450005E45DCD20123481E1843D8E7C445D3D8A3
:105460000020C445F6D3D2E7FF070000F0B54E4652
:105470004546DE4657465C00E0B51F03DB0F994604
:105480002A4B0E034D00C90F8446360B6D0D8B461B
:1054900090463F0B640D9D4220D0244B9C4222D06D
:1054A000002D12D1304343424341DBB2002C1FD0C8
:1054B000002B0CD04B460120013B034318003CBCA1
:1054C00090469946A246AB46F0BD002C16D0CB457F
:1054D00017D05B46594201230B43EFE7310002230B
:1054E0000143EBD1D9E7390002231143E6D1D7E7D5
:1054F0003A43DDD100230028E0D0EAE73A43E6D181
:10550000E7E7A542E5DC05DBBE42E2D807D0002391
:10551000BE42D3D25946012301390B43CEE7C445DD
:10552000D7D80023C445F5D3C8E7C046FF0700001D
:1055300070B500260C4D0D4C641BA410A64209D179
:10554000002600F0F5F90A4D0A4C641BA410A6428F
:1055500005D170BDB300EB5898470136EEE7B300B4
:10556000EB5898470136F2E73C5900003C590000DF
:105570003C59000040590000002310B59A4200D168
:1055800010BDCC5CC4540133F8E70000E802000011
:10559000320500003205000032050000320500002F
:1055A000320500003205000032050000320500001F
:1055B000320500003205000032050000320500000F
:1055C000320500003205000032050000D002000064
:1055D00032050000320500003205000032050000EF
:1055E00032050000320500003205000032050000DF
:1055F00032050000320500003205000032050000CF
:10560000320500003205000032050000E002000013
:1056100032050000320500003205000032050000AE
:10562000320500003205000032050000320500009E
:10563000320500003205000032050000320500008E
:10564000320500003205000032050000D8020000DB
:10565000F0020000B8020000C8020000C002000012
:1056600002000000030000002800000029000000E4
:105670000400000005000000060000000700000014
:105680002000000021000000220000002300000094
:105690002400000025000000260000002700000074
:1056A00008000000090000000A0000000B000000D4
:1056B000FFFF0000FFFF0000FFFF0000FFFF0000F2
:1056C000000000420004004200080042000C0042BA
:1056D00000100042000400434A110000461100007F
:1056E00046110000AC110000AC1100006011000078
:1056F00050110000661100009A1100002000000007
:1057000040000000800000000402020019191A0085
:10571000FFFFFF00FFFFFF00FFFF00000804020083
:10572000010000000200000004000000080000006A
:105730000010000000200000004000000080000079
:10574000000001000000020000000400000008004A
:105750000E0F10008E1E0000841F00008E1F000020
:10576000981F0000A21F0000D41F0000DE1F0000D1
:10577000E81F0000F21F0000FC1F00000020004294
:105780000024004200280042002C00420008004390
:105790000200000000010000020000000002000002
:1057A00002000000000400000200000000080000E9
:1057B0000300000004000000522300009A230000B0
:1057C000A2230000AA230000B2230000BA23000095
:1057D000C2230000CA230000D2230000DA23000005
:1057E00048250000C2250000C8250000EA25000069
:1057F0003E26000052260000602600006E260000B3
:105800007C26000098260000BA260000CE26000064
:10581000DC260000EA260000FE260000B227000079
:105820001A2700002E2700003C27000082270000D6
:10583000682C0000442B0000662B00008E2B00001B
:10584000B62B0000CE2B0000E62B0000FE2B000044
:10585000082C00000E2C0000242C0000322C00002C
:105860003C2C0000462C0000502C00005A2C00005C
:1058700078320000C8310000C8310000C631000095
:105880006A3200006A32000060320000C631000057
:105890006A320000603200006A320000C631000047
:1058A00070320000703200007032000000330000DF
:1058B000BC3F00009E3F0000583F0000763E0000C5
:1058C000583F0000903F0000583F0000763E000027
:1058D0009E3F00009E3F0000903F0000763E00008B
:1058E0006E3E00006E3E00006E3E0000D44100009F
:1058F0001C460000DC440000DC440000D8440000EA
:10590000F4450000F4450000E6450000D8440000DE
:10591000F4450000E6450000F4450000D8440000CE
:10592000FC450000FC450000FC450000004800006C
:10593000F8B5C046F8BC08BC9E467047DD000000C4
:10594000F8B5C046F8BC08BC9E467047B5000000DC
:1059500001000000E80300004000000000000030EB
:0C59600000180000E8030000E80300004D
:040000030000209148
:00000001FF
